:100000000C9429010C9461010C9461010C94610120
:100010000C9461010C9461010C9461010C946101D8
:100020000C9461010C9461010C94F41C0C94C81D97
:100030000C94C5170C9461010C9461010C9461013E
:100040000C9461010C9461010C9461010C946101A8
:100050000C9461010C944C180C9461010C94610196
:100060000C9461010C9461010C9461010C94610188
:100070000C9461010C9461010C9461010C94610178
:100080000C9461010C9461010C9461010C94610168
:100090000C9461010C9461010C9461010C94610158
:1000A0000C9461010C9461010C94610154005500A1
:1000B00056005700060007000800090060006100B4
:1000C000040005005C005D005E005F0062005900F6
:1000D0005A005B000C0353006F00790075007A0032
:1000E0000000260361006900300033002000440056
:1000F00065007300690067006E0020005300740003
:100100007500640069006F0000000403090409021F
:100110003B00020100A0FA090400000103010100F4
:100120000921110100012240000705810308000197
:10013000090401000103000000092111010001224E
:10014000B600070582032000011201000200000032
:100150000803A1180001000102000105010902A124
:100160000185020901A100050919012908150025C9
:1001700001950875018102050109300931158125B4
:100180007F95027508810609381581257F950175CF
:10019000088106050C0A38021581257F950175082E
:1001A0008106C0C005010980A101850319012AB794
:1001B00000150126B700950175108100C0050C09D6
:1001C00001A101850419012AA002150126A00295AA
:1001D0000175108100C005010906A101850605070A
:1001E00019E029E715002501950875018102050729
:1001F000190029EF1500250195F075018102050808
:100200001901290595057501910295017503910163
:10021000C005010906A101050719E029E715002518
:10022000019508750181029501750881010507197D
:100230000029FF150026FF009506750881000508B6
:100240001901290595057501910295017503910123
:10025000C00011241FBECFEFDAE0DEBFCDBF04B671
:1002600003FE18C08091880290918902A0918A02B1
:10027000B0918B028730904BA740B04B59F410924D
:1002800088021092890210928A0210928B02E0E09A
:10029000F8E3099511E0A0E0B1E0E6E0F1E402C086
:1002A00005900D92A238B107D9F722E0A2E8B1E09B
:1002B00001C01D92A838B207E1F70E943D100C94CE
:1002C0002C200C94000081E0089581E008950E94A4
:1002D0006501089508950E946A010895A5E0B0E0BF
:1002E000E4E7F1E00C94981F49835A833091890127
:1002F00089819A81311119C0662399F0222389F0EE
:100300000E946507182F682F89819A810E944207F1
:1003100069817A81812F0E94D10D2596E3E00C94AA
:10032000B41F0E945307182FF3CF0E9465076981FD
:100330007A81F1CFFC01262F408151816281738146
:1003400084810E946E01089581E00895CF93DF9328
:10035000EC0160E00E949A01BE010E946B01DF91F6
:10036000CF9108950E94F80E08950E94FC0E089502
:1003700008950E940D060E94B8012FEF84E39CE0CF
:10038000215080409040E1F700C0000008950E9495
:10039000B9010E94701808950E94B9010E94941832
:1003A00008950F931F93CF93DF938C0161E00E9418
:1003B0009A01EC01B8010E946701811106C080E03A
:1003C000DF91CF911F910F910895B801CE010E9446
:1003D000F7158823A1F3B801CE010E94CE1288231D
:1003E00071F3B801CE010E946915882341F3F80129
:1003F0008281882361F0CB35FDE5DF0701F158F4F8
:10040000C115ECE5DE0791F0CF3DDC4591F0C80168
:100410000E946301D5CFCD358DE5D80769F090F006
:10042000C83ADD45A1F70E94CC01C9CF0E94C7019F
:10043000C6CF0E94180CF7CF0E945D0BE8CF0E9438
:10044000670BE5CF0E946B0BE2CF0E94A2170E94C0
:10045000420208950E9446020E94A7170895089537
:100460000E942F02089581E008950E9433020895AA
:100470000895CF93C82F0E9430028C2F0E9435021E
:10048000CF91089580E00E94390208950E9453168A
:100490000E9439020895CF930E945316C82F80916D
:1004A00084018C1779F0C09384010E943118609305
:1004B00085017093860180938701909388018C2F2A
:1004C0000E943902CF910895ABE0B0E0EAE6F2E095
:1004D0000C94991F4F83588769877A878B8761119E
:1004E0000E94A80A1E821D8285E0FE013796DE0169
:1004F000119601900D928A95E1F78C819D81892B4F
:1005000061F449815A816B817C818D819E810E9439
:10051000D1092B96E2E00C94B51F89819A81892339
:100520008F3F79F3CE0101960E94A4018111E9CF9A
:10053000F0CFFC01808191810E9497070895CF93AD
:10054000C82F8823C9F08238C9F40E94531681FD50
:1005500013C089E30E94600A0E94C90A2FEF87EE48
:1005600093E0215080409040E1F700C0000089E313
:100570000E94680A0E94C90ACF9108958338A1F4A5
:100580000E94531680FDF8CF83E50E94600A0E9406
:10059000C90A2FEF81EE94E0215080409040E1F7AE
:1005A00000C0000083E5E4CF8438A1F40E94531614
:1005B00082FDE2CF87E40E94600A0E94C90A2FEF01
:1005C00081EE94E0215080409040E1F700C00000AF
:1005D00087E4CECF8CEF8C0F813AB8F48C2F0E9439
:1005E000AE148111C9CF6C2F80910001909101014F
:1005F0000E94C816882329F08C2F0E94680A0E9446
:10060000C90A8C2F0E94600AB5CF80E28C0F883017
:1006100048F4C77081E001C0880FCA95EAF70E94CC
:100620008B0AA8CFEBE5EC0FE33040F4F0E0EB5B96
:10063000FE4F808190E00E9488169ECFE8E5EC0F87
:10064000E73150F4F0E0EE0FFF1FE95EFE4F8081CE
:1006500091810E949E1690CFCD3E08F48DCF8C2FB5
:100660000E94C1100E94941187CF882309F455C0BD
:10067000823879F40E94531681FF4FC089E30E94AB
:10068000600A0E94C90A89E30E94680A0E94C90A96
:100690000895833859F40E94531680FF3EC083E5C5
:1006A0000E94600A0E94C90A83E5EECF843859F49B
:1006B0000E94531682FF31C087E40E94600A0E94A4
:1006C000C90A87E4E1CF9CEF980F913AE8F290E2F3
:1006D000980F983050F4877091E001C0990F8A9577
:1006E000EAF7892F0E94910AD1CF9BE5980F9330AA
:1006F00028F490E080E00E948816089598E5980F0D
:10070000973128F490E080E00E949E1608958D3E77
:1007100020F00E941B110E94941108951F93CF9303
:10072000DF93182FEB010E949F02209739F4812F4D
:100730000E943503DF91CF911F9108958FE99FE0CB
:100740000197F1F700C000002197EFCF70E060E063
:10075000893311F460E570E00E948E0308958823C8
:1007600021F00E948B0A0E94C90A0895882321F073
:100770000E94910A0E94C90A0895B0E0A0E0E3EC4B
:10078000F3E00C94921F6C01D62FC72FFC0112814D
:10079000F580F2949FE0F9220E94810AE82E8823D6
:1007A000B9F0E12E1123A1F08C2F807F803421F04D
:1007B00080E28D0F8830D0F080916C0282FF16C0ED
:1007C00082E00E942C0B0E94810A91E0E82EE9262B
:1007D000BC2EB2948FE0B822FBE0FB1508F468C091
:1007E000EB2DF0E0E25DFF4D0C94831FE12CF0CF88
:1007F0000C2F0F70C07F11F00295007F112399F02C
:10080000002359F080E28D0F883010F0D11107C01D
:10081000802F0E948B0A0E94C90A8D2F41C0802F11
:100820000E949B0AF8CF8D2F0E943503002309F404
:100830003FC080E28D0F883010F0D11104C0802FAE
:100840000E94910A03C0802F0E94A10A0E94C90A37
:100850002FC00C2F0F70C07FC03211F00295007FA7
:10086000DD2381F0D13009F463C0112309F46DC098
:10087000FF2009F463C0F601858180FFCECF8F7021
:1008800085835CC080916C0282FD33C0112359F0D6
:10089000002329F0802F0E948B0A0E94C90A80E061
:1008A0000E949F0205C080E00E9435030111C7CF5E
:1008B000EB2DE850FF0B349720F40E9453160E9452
:1008C0003902EE2089F00E947D0A80FD0DC0F601FC
:1008D00012820E94770A0E94A006C6010E94CD05DE
:1008E0000E94770A0E94B006CDB7DEB7E9E00C940B
:1008F000AE1F112389F0F11006C00E94AB0A802BB5
:100900000E94AF03D5CF21E0F212F7CF0E94AB0ACD
:10091000802B0E94B20ACCCFF11006C00E94BF0A01
:10092000802F0E94B603C4CF31E0F31609F2F6CF50
:10093000112331F085E08F1508F4BACF802FE0CF76
:1009400094E09F1508F4B4CFEBCFFF2049F3D933DF
:1009500049F4FFEF27EE33E0F15020403040E1F75B
:1009600000C000008D2F0E943503A2CF8C2F8695EA
:100970008695837069F0813009F09ACF8D2F9C2F76
:100980009370111102C090E080E00E949E1690CFFB
:100990008D2F9C2F9370111102C090E080E00E9477
:1009A000881686CF8D2F112329F00E94C1100E9436
:1009B00094117ECF0E941B11FACF8C2F8370A1F56A
:1009C000111176CF4D2F429546954770440F440F35
:1009D0002D2F2F7030E0042E02C0220F331F0A94F7
:1009E000E2F790E080E0D4FF09C08FE090E002C021
:1009F000880F991F4A95E2F780959095C695C69500
:100A0000C370822B932BC23049F058F4C13019F0D7
:100A10000E946E064DCF0E9465064ACF0E9477065F
:100A200047CF0E94620644CF8695112311F08C2F88
:100A30008170882309F43CCF4D2F4295469547702D
:100A4000440F440F2D2F2F7030E0042E02C0220FD0
:100A5000331F0A94E2F790E080E0D4FF09C08FE0F2
:100A600090E002C0880F991F4A95E2F78095909513
:100A7000C695C695C370822B932BC23049F058F4AB
:100A8000C13019F00E94DB0613CF0E94D20610CFAE
:100A90000E94E4060DCF0E9486060ACFCF70112374
:100AA00029F08C2F0E94A0068D2F2ACF8D2F0E9417
:100AB000B6038C2F0E94B006FBCED23F51F160F4FA
:100AC000D03FB9F0D13F81F0112309F449C0F110B2
:100AD000A4CE8C2F8F7121C0D33F11F1D43FA1F749
:100AE00080916C0282FD26C08C2F8F71112311F32F
:100AF00014C0112349F084E08F1508F4D9CE8C2F4F
:100B00008F710E94C206D4CE95E09F1508F4D0CE16
:100B1000F6CF8C2F8F711111CDCF0E94A006C8CEB9
:100B2000112329F08C2F8F710E949406C1CE0E9450
:100B30008F06BECE112349F0CF718C2F0E94A006E4
:100B400063E08C2F0E940E0BB3CE81E00E942C0B31
:100B5000E1E0EF1508F0ACCE82E00E942C0BA8CEAD
:100B6000F110F5CE8C2F8F71A5CF0F931F93CF93DC
:100B7000DF93EC01688179818A810E94A2078C0150
:100B80000E94ED060E946106B801CE010E94BD03DD
:100B9000DF91CF911F910F910895CF93DF93EC01D7
:100BA0008B819C81892B29F08881998189238F3FB2
:100BB00051F4DF91CF910895CE010E94B505CE0189
:100BC0000E94A601F6CFCE010E94D1018111F4CF7F
:100BD0000E94810A882369F38A81882351F38091D6
:100BE0006C0282FFE6CF82E00E942C0BE2CF90E005
:100BF00080E00E94881690E080E00E949E160E948D
:100C0000A80A0E94C90A0E94B0110E949411089576
:100C10000E94700A0E94F70508950E94980A0E9497
:100C20000806089592959F70963091F058F4925F5F
:100C30009F70923058F4803F19F030F4883E30F4C1
:100C400081E008959A5FF4CF843FD1F380E0089566
:100C5000883EB0F3813FD1F7F3CFFC0183819481CB
:100C6000892B29F08081918189238F3F11F480E0C5
:100C70000895808191810E9497070E94120608952D
:100C8000A5E0B0E0E6E4F6E00C94991F2596E2E0DA
:100C90000C94B51FA6E0B0E0E0E5F6E00C94991FD7
:100CA0002696E2E00C94B51F08950E94540608951C
:100CB0000E94550690939901809398010E94F70530
:100CC000089508950E945806089520919801309142
:100CD0009901822B932B0E94580608952091980128
:100CE00030919901822393230E9458060895209100
:100CF000980130919901822793270E945806089500
:100D00000E94540608950E94800608950E9483065A
:100D100090939701809396010E94F705089590E0C3
:100D200080E00E948606089521E030E0A90102C01B
:100D3000440F551F8A95E2F7CA010E94860608955E
:100D400021E030E002C0220F331F8A95E2F7809144
:100D5000960190919701822B932B0E94860608950D
:100D600021E030E002C0220F331F8A95E2F7209580
:100D700030958091960190919701822393230E9450
:100D80008606089521E030E002C0220F331F8A95C5
:100D9000E2F78091960190919701822793270E9414
:100DA000860608952091960130919701822B932B0E
:100DB0000E94860608952091960130919701822322
:100DC00093230E9486060895209196013091970101
:100DD000822793270E94860608950895262F27705C
:100DE00091E001C0990F2A95EAF723E0769567957F
:100DF0002A95E1F7660F771F660F771FFA01E60F56
:100E0000F71F50E040E0682F70E08191DF011197FB
:100E10009B01042E02C0369527950A94E2F72170B3
:100E200021952827292328272C934F5F5F4F443093
:100E3000510559F70895A82FA77023E09695879537
:100E40002A95E1F7880F991F880F991FFB01E80F7A
:100E5000F91F50E040E080E0219130E00A2E02C00E
:100E6000369527950A94E2F721703327042E01C0A6
:100E7000220F0A94EAF7822B4F5F5F4F44305105EF
:100E800059F70895262F953068F4843058F434E0EB
:100E9000939FB0011124680F711D4AE851E0822F21
:100EA0000E94EE060895953070F4843060F444E0BA
:100EB000949F900111246AE871E0820F932F911D95
:100EC0000E941B07089580E00895B0E0A0E0EBE6E3
:100ED000F7E00C94921F7C0100919601109197010C
:100EE0008091980190919901082B192BCFE0D0E0C7
:100EF000CC24C394D12CBC2EC6010C2E02C0880F6A
:100F0000991F0A94E2F780239123892B49F42197B2
:100F100090F7B12C8B2DCDB7DEB7E9E00C94AE1F66
:100F2000B7018C2F0E94EC0D019789F3F3CFCF937B
:100F3000DF93EC010E946507BE010E94EC0DDF917A
:100F4000CF9108951F93CF93DF93EB019091890187
:100F5000992339F0CB010E949707DF91CF911F9120
:100F60000895882369F0CB010E946507182F682F28
:100F7000CE010E944207BE01812F0E94EC0DEDCFF1
:100F8000CB010E945307182FF6CF1F93CF93DF9307
:100F9000C0919A0116E080919B018C1304C0DF91EF
:100FA000CF911F910895D0E01C9FF0011D9FF00D7F
:100FB0001124E456FE4F4081518162817381848106
:100FC00095810E944A062196C770E5CF4091CC01D9
:100FD0005091CD016091CE017091CF018091D001EF
:100FE0009091D1010E944A0608951F93CF93DF93F9
:100FF0008091D101807F09F049C08091CE01882382
:1010000009F444C080919A01C0919B016091CC0188
:101010007091CD01A091CF01B091D001D62FD723EF
:1010200016E0C81799F190E0109711F0DF3F19F41E
:1010300001968770F6CF189F9001199F300D1124EB
:10104000F901E456FE4F41814713F2CF4081461328
:10105000EFCF42814111ECCF438154814A1B5B0B9E
:10106000483C510528F78091D1018F7080618093B1
:10107000D101F901EF55FE4F80818F70806180832F
:101080008CEC91E00E94CD050E94C507DF91CF91C5
:101090001F910895A1E1B0E0E0E5F8E00C94911F04
:1010A0008C0185E0F801DE011D9601900D928A9574
:1010B000E1F7F801E2808CECC82E81E0D82E609137
:1010C000CF017091D0016115710509F44EC1909165
:1010D000CC012091CD01892F82238F3F09F445C196
:1010E00040815181A380B480F090CE01F501E61BD0
:1010F000F70BFF2009F4EAC08091D101382F307F2F
:10110000E83CF10508F0A3C031116DC0FE2C251399
:1011100016C0941314C0E11012C08F7080618093C8
:10112000D1010E94E607C6010E94CD058091D10140
:10113000F80185838F2D6196EAE00C94AD1FA11410
:10114000B10429F0842F85238F3F09F027C180E067
:10115000F82FF170DF2E80FF3CC080919A01209122
:101160009B0136E0821315C04D875E878D859E8575
:101170000E949707292F22952F702230F0F02430FB
:1011800018F59F70F1F0F8019581907FD1F4D12C82
:101190001EC090E0389FF001399FF00D1124E456F5
:1011A000FE4F6181651306C06081641303C06281D4
:1011B000E6120FC001968770D5CF9F7011F088237B
:1011C00031F3805E883018F3C8010E94CD05FD2CF4
:1011D000B1CFEE2009F4AECF8091D1018160809330
:1011E000D101F12CA7CF251306C0941304C0F80138
:1011F000EE2009F487C0C8010E942D06882319F14A
:10120000EE2009F18091D101803270F02091CC0163
:101210003091CD0138872F831986BB86AA868C87AB
:10122000CE0107960E94CD0586E0F801ACECB1E056
:1012300001900D928A95E1F70E94F5070E94E6075A
:10124000FF24F39477CFC8010E94CD05F9CF311167
:1012500013C07A2DB98AA88A6E2D89890E9440060A
:101260008CEC91E00E94CD0586E0F60111928A9502
:10127000E9F70E94E607B5CF25130FC094130DC000
:10128000E1100BC0F8018583C8010E94CD0586E0FE
:10129000F60111928A95E9F74DCFC8010E942D06FB
:1012A000882389F2EE2079F28091D101803208F40E
:1012B000BBCF2091CC013091CD013A8329831B8291
:1012C000BD82AC828E83CE010196ACCFE83CF105A5
:1012D00008F03EC0FE2CEE2009F4B5CF25132AC03D
:1012E000941328C08091D10180FD1BC0982F907F5E
:1012F000C1F0F8018583903F31F0982F907F905F87
:101300008F70892B8583C8010E94CD0586E0F80186
:10131000ACECB1E001900D928A95E1F70E94E607EE
:1013200009CF86E0F801ACECB1E001900D928A950E
:10133000E1F700CFC8010E942D06811175CF809181
:10134000D10181608093D101C8010E94CD05F2CE08
:101350007A2DB98AA88A6E2D89890E94400686E076
:10136000F60111928A95E9F7D9CFEE2009F46BCFF7
:10137000C8010E942D06F82E882309F464CF86E068
:10138000F801ACECB1E001900D928A95E1F78CEC9C
:1013900091E00E9499020E94F507C0CF81E08E255E
:1013A000D7CEACE0B0E0E7EDF9E00C94981F4F83A6
:1013B000588769877A878B879C87CE0107960E941A
:1013C0004A08882369F08A859B85892B39F04F81EB
:1013D0005885842F85238F3F09F06BC016E05FC0CE
:1013E00086E0FE013796DE01119601900D928A95F6
:1013F000E1F78A859B85892B89F388859F818923DD
:101400008F3F61F320919B0130E0C9010196877005
:10141000992740919A014817190671F40E940D0608
:1014200010929B0110929A0186E0ECECF1E0DF0152
:101430001D928A95E9F7D2CF96E0929FD001939FB3
:10144000B00D1124A456BE4FFE01319601900D92AD
:101450009A95E1F780939B010E94C507BFCF819FBA
:10146000C001112484569E4F0E944A088823E9F047
:10147000E0919A011E9FF0011124E456FE4F408135
:10148000518162817381848195810E944A06809195
:101490009A0190E001968770992780939A01809134
:1014A0009A0190919B018913DACF2C96E3E00C947A
:1014B000B41F69857A858B859C850E944A068ECFEC
:1014C000682F80910001909101010E9448170895B2
:1014D000682F80910001909101010E945617089594
:1014E00080910001909101010E94641708958091FC
:1014F000F20185958595859508958091F201877013
:1015000008959091F201977081E009F480E00895C8
:1015100080911502089590911502892B80931502F0
:10152000089580959091150298239093150208953F
:1015300010921502089590911402892B8093140241
:101540000895809590911402982390931402089521
:101550001092140208958091F301089508950E9455
:10156000AE0A089590916C0292FF08C09091F30129
:10157000981721F08093F3010E94AF0A089580919B
:10158000F301882329F01092F30180E00E94AF0A52
:101590000895CF93DF93E0910001F09101018091D4
:1015A00015028083E0910001F0910101808190910A
:1015B0001402892B80839091F301992381F0E091AB
:1015C0000001F09101018081892B808380910001CD
:1015D000909101010E94B41681110E94BF0AC0912E
:1015E0000001D091010140E250E062ED71E0CE01D6
:1015F0000E94D41F892B59F080E2FE01A2EDB1E0D8
:1016000001900D928A95E1F7CE010E946016DF915C
:10161000CF91089508950E940A0B089590916C024D
:1016200092FF11C098E0899F90011124622B609372
:10163000F2010E94A0068091F2018595859585951D
:101640000E940B0B08950E94A00608951092F201CB
:1016500080E00E940B0B08959091F2018095892300
:101660008093F201282F277091F4282F082E000C68
:10167000330B9217130659F090916C0292FF07C03A
:101680008595859585950E94B0060E94260B089544
:1016900090916C0292FB222720F9281769F080FBB9
:1016A00092F990936C0280916B0290916C020E946F
:1016B000920B82E00E942C0B089580916C0282FBB9
:1016C000882780F991E089270E94480B089581E0DE
:1016D0000E94480B089580E00E94480B089590E016
:1016E00080E00E94F21F21E0883E9E4F09F020E03A
:1016F000822F089582E090E00E94EA1F089583E01F
:1017000090E00E94EA1F0895CF9384E090E00E9449
:10171000EA1FC82F82E290E00E94EA1F982F8C2FC8
:10172000CF910895CF93C92F682F84E090E00E9455
:10173000F81F6C2F82E290E00E94F81FCF9108956D
:10174000AB01BC018FE090E00E940A200895AB013C
:10175000BC0183E190E00E940A20089560E070E0FF
:10176000CB010E94A70B089560E070E0CB010E94BE
:10177000A00B0E94AE0B089568EE7EEF90E080E033
:101780000E94162060E082E090E00E94F81F60E076
:1017900083E090E00E94F81F109299011092980146
:1017A00060E084E090E00E94F81F64E082E290E054
:1017B0000E94F81F60E085E090E00E94F81F60E062
:1017C00086E090E00E94F81F6FEF87E090E00E94B3
:1017D000F81F40E050E0BA0188E090E00E940A2043
:1017E00060E08DE090E00E94F81F40E050E0BA0118
:1017F00088E190E00E940A2060E087E190E00E948A
:10180000F81F40E050E0BA018CE190E00E940A200D
:1018100070E060E080E290E00E94162040E050E03E
:10182000BA0188E190E00E940A200E94B40B08955A
:101830000E94BC0B0895682F8EE090E00E94F81F74
:1018400008950E94311860932102709322028093C0
:1018500023029093240260931D0270931E028093D2
:101860001F02909320020895089508950E94350C58
:10187000089508950E94390C089586ED9EE00E9417
:1018800049160E94340C0E94360C089581E0089598
:101890000E94460C0895089508950E944B0C0E94E2
:1018A0004C0C08950E94D90E0E94380208950E949F
:1018B0001C180E94A00F0E94520C0E943A0C08951E
:1018C000AAE0B0E0E6E6FCE00C94911F0E94B60F9F
:1018D00088E1A82E82E0B82E750110E0F701019191
:1018E0007F01812F0E94FF0E1F5F153009F440C059
:1018F0000817A1F38091250281FD0E94050F0E9427
:10190000480CC82E10E0812F0E94FF0E082FF50111
:1019100081915F01081731F1F12CEE24E394D02E70
:10192000D8268D2D8E21B1F0CC20A1F0FE821F8310
:1019300091E0802F8E2109F490E098870E9425186D
:101940008160782F9A8789874E815F8168858A8533
:101950000E946402F394EE0CF4E0FF12E2CFF50172
:10196000319700831F5F153071F60E94210C20C053
:101970000813C0CF0E9425188C0180911602909107
:10198000170208171907A1F08FEF89838A831B823A
:101990000E9425188160782F9D838C8349815A810C
:1019A0006B818D810E9464021093170200931602CE
:1019B0000E94D2110E944B022A96EAE00C94AD1FBD
:1019C000CF93DF930E94F10DEC01811521E5920781
:1019D00008F042C0811530E5930708F09FC0883EAB
:1019E000910530F5803E910508F094C0883A910544
:1019F00088F4853A910508F086C08130910509F494
:101A000089C0009709F486C0049708F083C0D0E02D
:101A1000C0E080C08F3B9105D0F7C85AD0E0CC0F12
:101A2000DD1FC85BDE4F0990D881C02DD46472C021
:101A3000811540E2940750F4C11581E0D80708F001
:101A400069C0CD3ED10518F3D06564C081159044BE
:101A5000F0F2DF70D06A5EC0811535E5930718F5A6
:101A6000811544E5940708F085C0C11583E5D807C2
:101A700008F06CC0C11522E5D20708F462C0CE019F
:101A80008370992721E030E002C0220F331F8A952E
:101A9000E2F7C695C69580E2C89FE0011124C22BEB
:101AA000D32BDC6837C0811539E59307A8F481157D
:101AB00048E5940708F063C0C11586E5D80708F02B
:101AC000A6CF8C2F0E94930EC82FD0E0DC2FCC27FE
:101AD000CC27DF71D0621EC081152AE5920708F479
:101AE00053C090568115904208F091CF8D2F8F7181
:101AF0000E94930E90E0982F882788279F719C0161
:101B00002C2BE901E7CFC55AD0E0CA58DE4FC88177
:101B1000D0E0D064CE01DF91CF91089583709927F2
:101B200021E030E002C0220F331F8A95E2F7C6950C
:101B3000C69540E2C49FE0011124C22BD32BDD687F
:101B4000E9CFDC2FCC27C16FD06AE4CFCE01837000
:101B5000992721E030E002C0220F331F8A95E2F777
:101B6000C695C69540E2C49FE0011124C22BD32B39
:101B7000DA68D0CFD82FCC27C46FD06ACBCFD82F7C
:101B8000CC27C06FD06AC6CF8F700E94930E34E00E
:101B9000D695C7953A95E1F7CF709C2FEC01D069A7
:101BA000B9CF7530B0F46430A0F4E72FF0E095E0E1
:101BB000899FE00DF11D1124EE0FFF1FEE0FFF1F97
:101BC000E60FF11DEE0FFF1FE455FF4F8591949135
:101BD000089580E090E008950E94D10D0E94E00CED
:101BE000089582389105B9F1B0F48133910509F473
:101BF0007DC048F48932910509F46DC08A3291059F
:101C000009F47BC008958533910509F45FC08933D9
:101C1000910509F10895833E9105D9F138F4803E8C
:101C2000910529F1823E910579F10895863E91054D
:101C3000D9F1873E910509F43EC0843E910541F5F6
:101C400020916C0221FF24C080916B0284FD19C099
:101C500087EE90E0089520916B02237009F05AC03E
:101C600020916C0223FF14C089E290E00895209136
:101C70006B0220FD38C030916C0230FF09C024FF98
:101C800043C090E080E0089520916B0222FDF7CFE1
:101C9000089520916B0222FD3AC030916C0230FD14
:101CA00039C024FFF5CFEDCF20916B0223FFF0CF99
:101CB00024FDE7CFCDCF20916B0223FD2EC03091C4
:101CC0006C0231FFEECF84EE90E0089520916B021C
:101CD00025FFDECFC9CF20916B0225FD21C02091C9
:101CE0006C0223FFD5CF89E390E0D2CF20916B0225
:101CF00026FFCECF8AE290E0089520916B0226FF66
:101D0000C7CF81E390E0089583EE90E0089582EEDE
:101D100090E0089580EE90E0089586EE90E00895BA
:101D200085E390E0089590916B0292FF06C0282F02
:101D300028712830F9F4877F846093FF06C0282F2C
:101D400028712831F1F4877E846120916C0220FF94
:101D500006C0382F38713830D9F4877F816021FF71
:101D600006C0282F28712831D1F4877E816194FD27
:101D7000877E0895282F24712430F9F68B7F8860A0
:101D8000DCCF282F2471243101F78B7E8861DDCFD1
:101D9000382F3171313019F78E7F8860E0CF282FCE
:101DA0002171213121F78E7E8861E1CF80E0089595
:101DB00008950E946F0B811102C00E94180C0E94AE
:101DC0007A0B809325020E94840B90936C0280937F
:101DD0006B020E94D80E0E947F0B90E00E94620668
:101DE00080919601909197010E948306089508952D
:101DF0000E94F70E089508950E94FB0E0895E82FA3
:101E0000F0E0EE58FD4F80810895089580EA8A95AC
:101E1000F1F7089500C008950E94060F0895F89400
:101E2000E82FE295EF70F0E031A1282F2F7081E0CC
:101E300090E001C0880F2A95EAF7982F9095932398
:101E400091A392A1892B82A378940895CF93DF93D5
:101E5000CDE7D1E089918F3F11F00E940F0F81E013
:101E6000C238D807B9F784EF0E940F0F83E30E94AE
:101E70000F0F87E90E940F0F85E30E940F0FDF917C
:101E8000CF910895B0E0A0E0E8E4FFE00C94931F48
:101E9000EC01D62E062F10E0C80183589E4F7C011E
:101EA000FC0180818F3F09F444C0F894E82FE2954B
:101EB000EF70F0E091A18F7021E030E001C0220FBF
:101EC0008A95EAF7892F822B81A382A12095282366
:101ED00022A378940E940A0FE9E7F1E031E0C12CD7
:101EE00021912F3F59F1A22FA295AF70B0E09096AB
:101EF0008C9190E02F7002C0959587952A95E2F716
:101F000080FD1CC0832FC82A330F81E0ED37F8070E
:101F100039F7F70180818F3F11F00E940F0F61E0C8
:101F2000C11001C060E08D2D0E940C0FC00FD11FA9
:101F3000C882CDB7DEB7E8E00C94AF1F80E0E3CFF6
:101F40000E94260F85E0E2E7F2E0DF01982F1D9264
:101F50009A95E9F7EDE6F2E0DF011D928A95E9F73F
:101F600085E00E94F10F0E94B2010895A5E0B0E063
:101F7000ECEBFFE00C94961F8E010F5F1F4F85E086
:101F8000F80111928A95E9F7F12C6F2DC8010E9492
:101F9000420FF394F5E0FF12F8CF45E050E0B801AE
:101FA0008DE692E00E94D41F21E0009709F420E022
:101FB000892B41F085E0F801ADE6B2E001900D9289
:101FC0008A95E1F745E062E772E08DE692E00E94D3
:101FD000F20F182F0E94B501812F2596E5E00C9491
:101FE000B21F0895CF92DF92EF92FF920F931F934B
:101FF000CF936C017B01042F222349F081E0809371
:1020000028020E9425189093270280932602C091EF
:102010002802C1110AC0C0E08C2FCF911F910F91EF
:10202000FF90EF90DF90CF900895809126029091DD
:1020300027020E943D18059770F310E0A801B60131
:10204000C7010E94D41F892B41F0A801B601C70126
:102050000E94E11F10922802DFCFC0E0FBCF0E9458
:102060004A1A0E94570C0E94571A08950E945C1A3F
:102070000E94600C0E94761A08950E94BE170E946A
:10208000301A0E943D0C0E942F100E9436100E94B0
:102090004D0CFBCF80912F0280FF0DC06091070196
:1020A00070E0660F771F6038710570F56115710576
:1020B00069F1862F089581FF07C06091070184E0D0
:1020C000689FB0011124EFCF6091070182FD0AC023
:1020D00080912E028823A9F02091060160910701CA
:1020E000821710F088E0ECCF869FC001112433E006
:1020F000880F991F3A95E1F7622F70E00E946F1FD9
:10210000D2CF68E070E0D5CF8FE7089581E00895E1
:1021100080912F0280FF0CC06091030170E07595E3
:102120006795759567956115710549F1862F089535
:1021300081FF06C06091030170E075956795F3CF4C
:102140006091030182FD0BC090912D029923A1F0B3
:102150006091020180910301961738F0682F70E0BA
:102160006038710500F38FE70895899FC00111243D
:1021700070E00E946F1FF4CF61E070E0D7CF81E084
:1021800008958D3E31F40E944A1081958093330268
:1021900008958E3E19F40E944A10F8CF8F3E31F414
:1021A0000E944A108195809332020895803F19F46D
:1021B0000E944A10F8CF893F29F40E94881080932A
:1021C000340208958A3F21F40E9488108195F7CF48
:1021D0008B3F31F40E9488108195809335020895D9
:1021E0008C3F19F40E948810F8CF9FE0980F983028
:1021F00070F4815F990B21E030E001C0220F8A95D5
:10220000EAF780913102822B8093310208958D3F4D
:1022100031F480912F02816080932F0208958E3FC8
:1022200021F480912F028260F7CF8F3FB9F7809120
:102230002F028460F1CF409132028D3E59F480919B
:10224000330287FF0DC01092330241110BC0109270
:102250002E0208C08E3E81F48091330218169CF342
:10226000442381F08091340290913502892B09F04A
:102270005AC010922D0208958F3E49F447FFF0CFC7
:1022800010923202809133028111ECCFE0CF803F77
:1022900019F41416ACF3E4CF90913402893F29F479
:1022A0001916F4F610923402DBCF8A3F19F497FF27
:1022B000D7CFF8CF909135028B3F29F497FFD0CF3D
:1022C00010923502CDCF8C3F19F41916CCF3C8CF3C
:1022D0009FE0980F983090F4815F990B21E030E0F7
:1022E000B90102C0660F771F8A95E2F7CB0180958E
:1022F00090913102892380933102B2CF8D3F31F426
:1023000080912F028E7F80932F02AACF8E3F21F4DF
:1023100080912F028D7FF7CF8F3F09F0A1CF809161
:102320002F028B7FF0CF08950E9425189C01909179
:10233000320280913302982B21F030932C022093AB
:102340002B029091340280913502982B21F030932A
:102350002A022093290280E392E00E947A160895CF
:1023600086E0E0E3F2E0DF011D928A95E9F7109242
:102370002E0210922D0210922F020895FC018281EC
:1023800081110EC0838181110BC08481811108C02D
:1023900091E08581811101C090E0892F81700895BD
:1023A00081E0FCCFA6E0B0E0E8EDF1E10C94981FED
:1023B00086E0E0E3F2E0DE01119601900D928A954D
:1023C000E1F710923202109233021092340210920E
:1023D00035028B819C81892B89F080912B02909111
:1023E0002C020E943D18AC0190912E029923C9F154
:1023F000809108018417150608F440C08D819E81E4
:10240000892B91F08091290290912A020E943D1817
:10241000AC0190912D02992309F471C080910401BF
:102420008417150608F479C0BE016F5F7F4F80E303
:1024300092E00E947617811105C080E392E00E942D
:10244000BE1181110E94941186E0FE013196A0E335
:10245000B2E001900D928A95E1F72696E3E00C94A4
:10246000B41F209109018AE0289F900111242417AC
:10247000350720F69F5F90932E0202C09F3FD1F751
:102480001B81112359F00E944A109FEF11160CF482
:1024900091E0899F802D1124809332021C811123A9
:1024A00059F00E944A109FEF11160CF491E0899F99
:1024B000802D11248093330230913202332309F4AA
:1024C0009DCF20913302222309F498CF45EB3403AA
:1024D000C0011124992359F09093320245EB240353
:1024E00090011124332339F03093330287CF81E0F8
:1024F00080933202F3CF81E0809333027FCF20912B
:1025000005018AE0289F900111242417350708F05F
:102510008BCF9F5F90932D0202C09F3FD1F71D810B
:10252000112359F00E9488109FEF11160CF491E0CE
:10253000899F802D1124809334021E81112359F02C
:102540000E9488109FEF11160CF491E0899F802D56
:1025500011248093350230913402332309F464CF7F
:1025600020913502222309F45FCF45EB3403C001EB
:102570001124992359F09093340245EB24039001E0
:102580001124332339F0309335024ECF81E080930C
:102590003402F3CF81E08093350246CFCF93DF93AF
:1025A000EC01FB018281882309F464C1C430FDE59C
:1025B000DF07E0F5CB3F9CE5D90730F49E012250C0
:1025C0003C4524313105D8F50E94840B90936C0270
:1025D00080936B02C231ECE5DE0709F41FC108F0FD
:1025E0006EC0C9308CE5D80709F4F2C008F03FC0CE
:1025F000C530ECE5DE0709F4DBC058F5C3308CE5E7
:10260000D80709F4CDC008F0CFC080916B0281607B
:10261000C230DC4509F4AEC080916B0290916C022F
:102620000E94920B0E940D0680E009C0C63AEDE5BB
:10263000DE0751F238F4C2369DE5D90729F2DF9161
:10264000CF9108959E012E5A3D4523303105B8F7AC
:10265000BBCF80916B028062C730FCE5DF0709F4D5
:1026600089C008F4B1C080916B02806483C0CD3012
:102670009CE5D90709F4BAC070F480916B028E7F93
:10268000CB30FCE5DF0709F475C008F4A7C08091E2
:102690006B028D7F6FC0CF309CE5D90709F4B6C0BF
:1026A00008F4A8C0C031FCE5DF0709F4B3C0C131AC
:1026B000DC4509F0B1CF80916B028F7B5BC0C11507
:1026C0009DE5D90709F4B4C098F5CB3FFCE5DF07D9
:1026D00009F472C0B8F4C4319CE5D90709F4B6C056
:1026E00008F4A2C0C531DC4509F096CF80916B0299
:1026F00082FB992790F921E0922790FB82F990FBC9
:1027000083F938C0CD3F8CE5D80709F477C008F4C9
:1027100057C0CE3FECE5DE0709F474C080916C022F
:102720008360CF3FDC4509F077CF80936C0274CF94
:10273000C2368DE5D80709F496C068F4C230EDE5DD
:10274000DE0709F48CC008F477C0C330DD4509F01A
:1027500063CF80E085C0CE3A9DE5D907E9F068F403
:1027600090916B02892F8E7F90FF8160C63ADD4584
:1027700009F052CF80936B024FCFCF3A8DE5D80747
:1027800089F1C03BDD4509F047CF90916C02892F5C
:10279000877F93FF8860C9CF80916C028860C5CF26
:1027A00080916B028260E6CF80916B028460E2CF01
:1027B00080916B028860DECF80916C028160B5CF22
:1027C00080916C028260B1CF80916B028061D2CF28
:1027D0000E940D0680916B028068CCCF80916B02C5
:1027E0008C60C8CF80916C02877F9FCF80916B02F5
:1027F0008B7FC0CF80916B02877FBCCF80916C02B2
:102800008E7F93CF80916C028D7F8FCF80916B02F2
:102810008F7EB0CF80916B028F7DACCF0E940D0672
:1028200080916B028F77A6CF80916B02837FA2CFBE
:1028300080916C028C7F79CF80916C02982F90955B
:1028400091708E7F892B90FB81F96FCF0E940D06CE
:1028500090916B02892F97FB87F980588BCF81E08D
:102860000E941B0CD9CE90916B02892F8F7E94FF12
:10287000806180CF81E0E3CEEBEFE80FEF3308F02B
:1028800066C0F0E0E65CFF4D0C94831F0E94180CBC
:1028900081E0089580912502807F8093250281E068
:1028A0008093390208950E94C701F2CF90912502CA
:1028B000892F8E7F90FF81608093250280FDE8CF75
:1028C000817F80932502E4CF90912502892F8D7F0F
:1028D00091FF82608093250281FFDACF80912502EB
:1028E0008160EFCF90912502892F8B7F92FF8460CA
:1028F0008093250282FDF2CFCBCF90912502892FC4
:10290000877F93FF88608093250283FDE7CFC0CF48
:102910000E940D0690916B02892F97FB87F98058D2
:1029200080936B02B5CF81E090E00E9462060E9426
:102930000D06AECF895321E030E0A90102C0440F5B
:10294000551F8A95E2F7CA01F0CF8D51F4CF80E090
:10295000089580E008950E94A9140895CF93C82F88
:10296000809139028130B9F0882331F08230A1F1B1
:102970001092390280E00DC00E94880A8232D1F79D
:102980008C2F0E94A91481111BC08C2F0E943C1413
:102990008170CF9108950E94880A823289F38C2F2A
:1029A0000E94AB1481110AC0C43199F060F4CB309D
:1029B00029F0C03169F782E08093390281E0E8CFE5
:1029C00081E090E0E5CFC93221F0C833B9F380E06F
:1029D000DFCF10923902FBCFC93209F440C0F0F4C6
:1029E000C431E9F1A8F481E0C73099F68093090178
:1029F00084E1809308018AE0809307018EE180934F
:102A0000060188E08093030188E28093020104C0FC
:102A100082EE8C0F8A3070F181E0BBCFC03509F4B3
:102A200050C0B8F48AE0CF34B9F7E0913602F091A3
:102A30003702309789F32081082E000C990B820F02
:102A4000911D8F3F910509F00CF43FC08FEF8083FB
:102A5000E3CFC135C1F181E0C23539F39ACF80911E
:102A600038028823C9F2109238021092370210926D
:102A70003602D2CFCD51C0933802C330C9F048F4EA
:102A8000C13099F088E091E0C23051F010923802E4
:102A9000C3CFC53099F078F082E091E0C630B1F74D
:102AA0009093370280933602B7CF89E091E0F8CF58
:102AB00087E091E0F5CF86E091E0F2CF83E091E00E
:102AC000EFCF86EFB2CF8FEFB0CF97FFC0CF10829E
:102AD000A3CFCF93DF93EB0186319C4511F50E9484
:102AE000880A9A81992399F08A7A91E009F490E012
:102AF00090933A02811109C089E20E94600A0E9403
:102B0000C90A80E0DF91CF91089585E3F6CF8091E7
:102B10003A02811104C089E20E94680AF0CF85E37D
:102B2000FBCF81E0EFCF0F931F93CF93DF93C42FA1
:102B3000D22FFC0182818823C9F040933D020E947C
:102B4000251890933C0280933B0280E28C0F8830E2
:102B500040F4C77081E001C0880FCA95EAF70E946F
:102B6000AF03DF91CF911F910F91089510913D0216
:102B7000141332C080913B0290913C020E943D1898
:102B8000883C910548F5C0E2CD0F1D17B9F080E2F1
:102B9000810F883040F4177081E001C0880F1A95CA
:102BA000EAF70E94B603C83048F481E09D2F977081
:102BB00001C0880F9A95EAF70E94AF03802F0E9408
:102BC000A603C83070F6D77081E001C0880FDA958F
:102BD000EAF70E94B603C5CF80E28C0F883008F672
:102BE000C77081E001C0880FCA95EAF7F2CF0F9352
:102BF0009C01CB01243F4CE5340759F1A8F4293D51
:102C0000FCE53F0701F12A3D4CE53407D1F1283DB1
:102C10003C4591F406E221EE41EE68ED7CE50E9430
:102C2000931580E00F910895263FFCE53F07E9F0FA
:102C3000B0F0273F3C45F9F0FC018281882339F14F
:102C400010923D02EFCF07E225EE45EE69ED7CE5FF
:102C5000E6CF06E221EE40EE64EF7CE5E0CF07E24E
:102C600025EE44EE65EF7CE5DACF06E221EE42EE9A
:102C700066EF7CE5D4CF07E225EE46EE67EF7CE514
:102C8000CECF08E221E045EE6AED7CE5C8CF81E0D9
:102C9000C9CF90938301809382010895909343025A
:102CA000809342020895E0914202F09143023097EE
:102CB00029F00190F081E02D0995089580E00895B4
:102CC000E0914202F0914302309799F02091160171
:102CD000222359F020916B0227FF07C0DC012C91C1
:102CE00011962C93119726E02C930280F381E02D0E
:102CF00009950895E0914202F0914302309739F02E
:102D000022E0DC012C930480F581E02D09950895E3
:102D100020914002309141022817390771F09093B9
:102D2000410280934002E0914202F09143023097C9
:102D300021F00680F781E02D0995089520913E024B
:102D400030913F022817390771F090933F0280932A
:102D50003E02E0914202F0914302309721F000845C
:102D6000F185E02D09950895FC01329680911601B8
:102D7000882321F080916B029EE187FF96E080E03E
:102D8000915008F4089521912223D1F38F5FF8CF59
:102D9000662301F1209116012223F1F020916B02AC
:102DA00027FF1AC0462F4695469546954E3190F41A
:102DB000677021E030E002C0220F331F6A95E2F70E
:102DC000840F911DFC01828190E02823392381E04A
:102DD000232B69F480E00895FC0132960896219136
:102DE000261721F0E817F907D1F7F4CF81E008950D
:102DF0009C01FC0132969FEF80E04191461751F013
:102E00009F3F19F4411101C0982F8F5F8630A9F7B9
:102E10009F3F09F40895290F311D97FD3A95F90157
:102E200062830895FC01329608962191261303C00F
:102E3000DF0111971C92E817F907B9F70895E62FFB
:102E4000E695E695E695EE3168F4E80FF92FF11D69
:102E5000677021E030E001C0220F6A95EAF78281B5
:102E6000822B82830895E62FE695E695E695EE316E
:102E700070F4E80FF92FF11D677021E030E001C018
:102E8000220F6A95EAF720958281282322830895EC
:102E900020911601222339F020916B0227FF03C0F5
:102EA0000E941F1708950E94F81608952091160198
:102EB000222339F020916B0227FF03C00E943317B1
:102EC00008950E9412170895FC0132968091160110
:102ED000882351F080916B0287FF06C08EE1DF01ED
:102EE0001D928A95E9F7089586E0F9CF46E050E013
:102EF0000E94D41F21E0892B09F420E0822F08953D
:102F000008950E9480170895811106C081E0809382
:102F100044020E948117089582E0F9CF83E08093F4
:102F200044020E94811708950E948417089581E049
:102F3000809344020E94811708950E949717089574
:102F4000089508950E94A1170895089508950E9474
:102F5000A0170895CF930E94A5170E94B60F0E9454
:102F6000A617C0E08C2F0E94FF0E811105C0CF5F15
:102F7000C530C1F7CF91089581E0FCCF85B7806857
:102F800085BF85B7806885BF08951F921FB61F92C1
:102F900011248F939F93AF93BF938091450281112A
:102FA00013C08091770290917802A0917902B0913C
:102FB0007A024196A11DB11D809377029093780209
:102FC000A0937902B0937A02BF91AF919F918F91B4
:102FD0001F901FBE1F90189580917F02843031F1A1
:102FE0000E9425021092450288E190E020E40FB68D
:102FF000F894A895809360000FBE2093600083B77B
:10300000817F846083BF83B7816083BF7894889514
:1030100083B78E7F83BF0FB6F894A8958091600028
:10302000886180936000109260000FBE08950E9436
:103030000D060E942A02089582E084BD93E095BDAA
:103040009AEF97BD80936E0008952FB7F894809102
:10305000770290917802A0917902B0917A022FBF05
:1030600008952FB7F894609177027091780280915B
:10307000790290917A022FBF08959C014FB7F8947E
:103080008091770290917802A0917902B0917A02B2
:103090004FBF821B930B089578941F921FB61F9207
:1030A00011248F939F93AF93BF9380917702909158
:1030B0007802A0917902B0917A020196A11DB11D0A
:1030C0008093770290937802A0937902B0937A026A
:1030D000BF91AF919F918F911F901FBE1F90189528
:1030E00081E08093E00080E28093D8001092C900D4
:1030F0008FE19EE40197F1F700C0000087E090EBBC
:10310000DC018093880290938902A0938A02B09395
:103110008B0288E19CE00FB6F894A895809360003C
:103120000FBE90936000FFCF88E19CE00FB6F8944B
:10313000A895809360000FBE90936000FFCF8091B0
:103140006902089508959C0182E08093E9009FEF51
:103150008091E800915085FD06C085ED8A95F1F7D4
:1031600000009111F5CF8091E80085FF0CC050E080
:1031700040E066E070E0C9010E94E81A8091E80032
:103180008E778093E8000895CF93DF93EC018091D0
:1031900016018823B1F180916B0287FF32C060E293
:1031A00082E08093E9008FEF9091E800815095FDD7
:1031B00006C095ED9A95F1F700008111F5CF809149
:1031C000E80085FF1BC08091160170E050E040E0F0
:1031D000811104C050E040E068E070E0CE010E9440
:1031E000E81A8091E8008E778093E80080E2FE0183
:1031F000A9E4B2E001900D928A95E1F7DF91CF91B9
:10320000089568E081E0CDCF809346027093480234
:103210006093470280917F02843001F582E08093C1
:10322000E9008FEF9091E800815095FD06C095ED83
:103230009A95F1F700008111F5CF8091E80085FFA4
:103240000DC050E040E063E070E086E492E00E9450
:10325000E81A8091E8008E778093E8000895BC0119
:1032600084E00E9404190895BC0183E00E940419BF
:10327000089580917E02811109C00E94781C0E94ED
:10328000D51C8091E20084608093E2000895109242
:103290007E0208950E949717089560917B0281E055
:1032A000611101C080E00E948E17089590917F0205
:1032B00081E0943009F080E060917B020E949417D5
:1032C000089542E061EC81E00E94F41B42E261EC6F
:1032D00082E00E94F41B90917F0281E0943009F01B
:1032E00080E060917B020E948417089580918102A2
:1032F000833009F461C030F48130D1F1823009F4B7
:103300009EC008958A3009F48AC08B3009F46FC0DA
:10331000893009F050C080918002813209F04BC0A1
:103320008091840290918502029708F044C08091B8
:10333000E800877F8093E8008091E80082FF37C033
:103340009091F3008091F200029731F48091F100A6
:10335000813011F0863021F48091F1008093690270
:103360008091E8008B778093E8000E94281C23C09E
:1033700080918002813AF9F48091E800877F809300
:10338000E8008091840290918502892B61F460E2CB
:1033900089E492E070E00E94371B8091E8008B770F
:1033A0008093E800089560E090E080E0F3CF8091A2
:1033B0007F028111C1CF089580918002813AD9F7AF
:1033C0008091840290918502892BA9F78091E80071
:1033D000877F8093E8008091E80080FFFCCF809198
:1033E00016018093F1008091E8008E77BCCF809128
:1033F0008002813201F78091840290918502892BAD
:10340000D1F68091E800877F8093E8000E94281C15
:1034100080918202809316010E940D06089580918A
:103420008002813241F68091E800877F8093E80036
:103430000E94281C8091830280936A0208958091E3
:103440008002813A09F0B7CF8091E800877F8093AE
:10345000E8008091E80080FFFCCF80916A02C1CF34
:1034600084B7877F84BF0FB6F894A89580916000D9
:10347000886180936000109260000FBE80E890E049
:103480000FB6F89480936100909361000FBE0E9484
:103490009D1708950E94781C0E94D51CE2EEF0E072
:1034A00080818460808378940E94541F08958AE00C
:1034B00091E00E944E16089580917F02853031F48C
:1034C00080917F02853019F00E94171808950E949C
:1034D000EC1780917D02882399F30E94AA17882314
:1034E00079F30E94D21A0E940D06EACF08950E9435
:1034F0007A1A0895292F33272330310519F168F4FA
:103500002130310509F444C02230310509F445C0A9
:1035100090E080E030E020E025C02132310549F123
:1035200022323105A9F780E490E021E132E0611513
:103530007105C1F086EB90E02BE531E0613071055B
:1035400089F0E6CF99278130910581F0009729F025
:103550000297F1F6E4EDF0E002C0EAE0F1E08491D8
:1035600090E09F01FA01318320830895E2EEF0E0BC
:10357000F6CF89E090E020E231E06115710591F32A
:1035800089E090E029E331E06130710559F3C0CF63
:1035900082E190E029E431E0E5CF8BE390E02EE09A
:1035A00031E0E0CF80E189BD82E189BD09B400FE50
:1035B000FDCF8091D8008F7D8093D8008091E0006E
:1035C00082608093E0008091E00081FDFCCF08954F
:1035D000AF92BF92CF92DF92FF920F931F93CF9340
:1035E000DF936C01EB018A010E94471CF82E8111C8
:1035F00023C00115110539F0F80180819181C81BA4
:10360000D90BC80ED91EB12CA12C2097A9F08091FE
:10361000E80085FD22C08091E8008E778093E80065
:1036200001151105A1F0F80180819181A80EB91E44
:10363000B182A08285E0F82E8F2DDF91CF911F916E
:103640000F91FF90DF90CF90BF90AF9008950E94B0
:10365000471C8823D1F2F82EEFCFF60181916F013C
:103660008093F1002197FFEFAF1ABF0ACECFFC0184
:10367000809186029091870286179707A0F06115C6
:10368000710529F49091E8009E779093E80090E00E
:103690006115710551F4911108C08091E80082FF15
:1036A00034C080E00895BC01F2CF80917F0288236E
:1036B000C1F18530C1F18091E80083FD30C0809177
:1036C000E80082FDEACF8091E80080FFE1CF8091A1
:1036D000F3002091F200382F6115710519F02830A0
:1036E000310558F091E02830310509F090E0209143
:1036F000E8002E772093E800CBCF81918093F100F2
:10370000615071092F5F3F4FE7CF80917F0288237F
:1037100041F0853041F08091E80083FFBECF81E029
:10372000089582E0089583E00895FC018091860267
:103730009091870286179707A0F06115710529F40B
:103740008091E8008E778093E80090E06115710524
:1037500051F4911108C08091E80082FF35C080E0EB
:103760000895BC01F2CF80917F028823C9F1853092
:10377000C9F18091E80083FD31C08091E80082FDAD
:10378000EACF8091E80080FFE1CF8091F3002091A3
:10379000F200382F6115710519F02830310558F005
:1037A00091E02830310509F090E08091E8008E77B3
:1037B0008093E800CBCF84918093F10031966150E3
:1037C00071092F5F3F4FE6CF80917F02882341F040
:1037D000853041F08091E80083FFBDCF81E00895FE
:1037E00082E0089583E00895982F973028F08F7035
:1037F0008093E90081E008959093E900242F762FCB
:1038000050E0981731F07091EC002091ED0050914C
:10381000F00021FD02C09F5FE8CF3091EB003E7FBA
:103820003093EB003091ED003D7F3093ED0030910F
:10383000EB0031603093EB007093EC002093ED00CF
:103840005093F0002091EE0027FDE5CF80E0089531
:103850008091800287FF13C08091E80082FF06C03C
:103860008091E8008B778093E80004C080917F020C
:103870008111F2CF089580917F028823D9F380913E
:10388000E80080FFF8CF8091E8008E77ECCF2091A0
:10389000E4003091E50095E6A9012091EC00822F2B
:1038A000817020FF06C08091E80080FF06C080E0A4
:1038B00008952091E80022FD1AC080917F0288239C
:1038C00089F0853089F08091EB0085FD0FC0209153
:1038D000E4003091E50042175307F9F29150E1F608
:1038E00084E0089582E0089583E0089581E00895DA
:1038F0000E94E71C0E94EF1CE0EEF0E080818160F6
:103900008083E8EDF0E080818F77808319BCA7ED9C
:10391000B0E08C918E7F8C9380818F7E808310921B
:103920007E0208950F931F93CF93DF930E94E71CAD
:103930000E94EF1CC8EDD0E088818F778883888152
:103940008068888388818F7D888319BC10927F026C
:1039500010927B0210927D0210927C0200EE10E029
:10396000F80180818B7F808388818160888342E039
:1039700060E080E00E94F41BE1EEF0E080818E7F49
:103980008083E2EEF0E080818160808380818860C6
:103990008083F80180818E7F808388818061888325
:1039A000DF91CF911F910F910895E8EDF0E08081B4
:1039B0008F7E8083E7EDF0E080818160808384E00A
:1039C00082BF81E080937E020E94921C0895E8ED00
:1039D000F0E080818E7F80831092E2000895109243
:1039E000DA001092E10008951F920F920FB60F9225
:1039F00011242F933F934F935F936F937F938F93F4
:103A00009F93AF93BF93EF93FF938091E10082FF69
:103A10000BC08091E20082FF07C08091E1008B7FA4
:103A20008093E1000E94531F8091DA0080FF19C04B
:103A30008091D80080FF15C08091DA008E7F80933E
:103A4000DA008091D90080FF96C080E189BD82E1D3
:103A500089BD09B400FEFDCF81E080937F020E9402
:103A600039198091E10080FF19C08091E20080FF48
:103A700015C08091E2008E7F8093E2008091E20089
:103A800080618093E2008091D80080628093D800AA
:103A900019BC85E080937F020E944D198091E1005E
:103AA00084FF2BC08091E20084FF27C080E189BDA4
:103AB00082E189BD89B5982F917080FFFBCF8091FD
:103AC000D8008F7D8093D8008091E1008F7E809315
:103AD000E1008091E2008F7E8093E2008091E2001D
:103AE00081608093E20080917B02882309F449C0C1
:103AF00084E080937F020E9456198091E10083FF49
:103B000029C08091E20083FF25C08091E100877F7A
:103B10008093E10082E080937F0210927B0280918B
:103B2000E1008E7F8093E1008091E2008E7F8093A0
:103B3000E2008091E20080618093E20042E060E078
:103B400080E00E94F41B8091F00088608093F00078
:103B50000E944A19FF91EF91BF91AF919F918F9170
:103B60007F916F915F914F913F912F910F900FBE79
:103B70000F901F90189519BC10927F020E94471950
:103B800070CF8091E30087FD93E090937F02B3CFE5
:103B90001F920F920FB60F9211242F933F934F93C2
:103BA0005F936F937F938F939F93AF93BF93CF93C5
:103BB000DF93EF93FF93D091E900DF708091EC00E9
:103BC000C82FC17080FDC0E81092E9008091F0001C
:103BD000877F8093F00078940E940C1E1092E90079
:103BE0008091F00088608093F000CD2BCF70C0935F
:103BF000E900FF91EF91DF91CF91BF91AF919F913C
:103C00008F917F916F915F914F913F912F910F9085
:103C10000FBE0F901F901895AAE2B0E0E2E1FEE11E
:103C20000C94981F80E892E02091F100FC01219310
:103C3000CF01F2E088389F07B9F70E94761980918A
:103C4000E80083FF1EC180918002909181029A302A
:103C500008F017C1E92FF0E0E758FF4D0C94831FDF
:103C6000803899F0823809F00CC1809184028F70FD
:103C7000873008F006C18093E9008091EB0085FB56
:103C8000882780F91092E90006C080917C0290910B
:103C90007D02911182609091E800977F9093E800F7
:103CA0008093F1001092F1008091E8008E77E5C0DA
:103CB000882309F4D3C0823009F0E3C080918202E6
:103CC0008111D6C0809184028F702FEF280F26308B
:103CD00008F0D7C08093E9002091EB0020FFC8C016
:103CE000933031F48091EB0080628093EB00C0C090
:103CF0009091EB0090619093EB0021E030E001C0E7
:103D0000220F8A95EAF72093EA001092EA00809148
:103D1000EB008860EACF8111B4C0109182021F7756
:103D20008091E3008078812B8093E3008091E8000C
:103D3000877F8093E8000E94281C8091E80080FF24
:103D4000FCCF8091E30080688093E30082E0111152
:103D500083E080937F0295C08058823008F091C044
:103D600080918202909183028C3D23E09207A1F51D
:103D700083E08A838AE289834FB7F894DE01139641
:103D800020E03EE051E2E32FF0E050935700E49151
:103D900020FF03C0E295EF703F5FEF708E2F90E041
:103DA000EA30C0F0C7968D939D932F5F243159F769
:103DB0004FBF8091E800877F8093E8006AE270E05F
:103DC000CE0101960E94371B8091E8008B7780938B
:103DD000E80057C0C096E7CF6091840270918502D9
:103DE000AE014F5F5F4F0E94771ABC01892B09F427
:103DF00048C09091E800977F9093E80089819A816C
:103E00000E94951BE1CF8038E1F58091E800877F23
:103E10008093E80080917B028093F10045CF81116F
:103E200030C090918202923060F58091E800877FE7
:103E30008093E80090937B020E94281C80917B0273
:103E4000882311F084E005C08091E30087FDFACF5C
:103E500081E080937F020E94611913C080918202E9
:103E6000813079F481E0933009F080E080937D0225
:103E70001092E9008091E800877F8093E8000E941B
:103E8000281C8091E80083FF0AC08091E800877FAA
:103E90008093E8008091EB0080628093EB00AA960B
:103EA000E3E00C94B41F0895CF9380917F028823A0
:103EB000A1F0C091E900CF709091EC00892F817042
:103EC00090FD80E8C82B1092E9008091E80083FD06
:103ED0000E940C1ECF70C093E900CF91089597FB0C
:103EE000072E16F4009407D077FD09D00E94C01F5A
:103EF00007FC05D03EF4909581959F4F08957095ED
:103F000061957F4F0895EE0FFF1F0590F491E02D0E
:103F100009942F923F924F925F926F927F928F926D
:103F20009F92AF92BF92CF92DF92EF92FF920F9348
:103F30001F93CF93DF93CDB7DEB7CA1BDB0B0FB652
:103F4000F894DEBF0FBECDBF09942A88398848880F
:103F50005F846E847D848C849B84AA84B984C884A5
:103F6000DF80EE80FD800C811B81AA81B981CE0F9C
:103F7000D11D0FB6F894DEBF0FBECDBFED01089581
:103F8000AA1BBB1B51E107C0AA1FBB1FA617B7077F
:103F900010F0A61BB70B881F991F5A95A9F780959B
:103FA0009095BC01CD010895FB01DC0104C08D9109
:103FB0000190801921F441505040C8F7881B990B9B
:103FC0000895FB01DC0102C001900D924150504068
:103FD000D8F70895F999FECF92BD81BDF89A992737
:103FE00080B50895A8E1B0E042E050E00C941E20B6
:103FF000262FF999FECF92BD81BDF89A019700B4A2
:10400000021639F01FBA20BD0FB6F894FA9AF99A41
:104010000FBE08950396272F0E94F91F0E94F81FD4
:10402000252F0E94F91F242F0C94F91F0196272F8A
:104030000E94F91F0C94F81FDC01CB01FC01F999D7
:10404000FECF06C0F2BDE1BDF89A319600B40D92E4
:1040500041505040B8F70895F894FFCFF803F803A3
:1040600029042904B604D20458045804DD044E057A
:104070005D055D0553144A1456144814A714A7147B
:104080004814A714A7147214A7147D148814A71435
:10409000A714A714A7144814A714A7144814A71406
:1040A0006414A714A714A514A514A514A514A51485
:1040B000A514A514A514A5149314A71453144614F9
:1040C000A714A714A714A714A714A714A714A71418
:1040D000A714A7149314A714A7144814A7149A1488
:1040E0009A149A149A149A149A149A149A149A1460
:1040F0009314301E581E411F581E411F8B1EAC1EAC
:06410000411F031F0F1F09
:10410600F401280850011E0A14019F18C418A318A8
:1041160034192F19A21801E200E900EA00B500B629
:1041260000B700CD008301CC008A019201940121E1
:1041360002230224022502260227022A02B300B421
:10414600006F007000818283E200E900EA00B5009A
:10415600B600B700CD008301CC008A01920194011C
:104166002102230224022502260227022A02B30084
:10417600B4006F007000818283F4339735946636FD
:02418600C6343D
:00000001FF
